:100000000C9426060C9443060C9443060C94FB3186
:100010000C9443060C9443060C9443060C9443063C
:100020000C9443060C9443060C9486110C942B18E4
:100030000C94B7280C9443060C9443060C94430686
:100040000C9443060C9443060C9443060C9443060C
:100050000C9443060C945E120C9443060C944306D5
:100060000C9443060C9443060C9443060C944306EC
:100070000C9443060C9443060C9443060C944306DC
:100080000C9443060C9443060C9443060C944306CC
:100090000C9443060C9443060C9443060C944306BC
:1000A0000C9443060C9443060C9443060501098006
:1000B000A101850319012AB700150126B700950192
:1000C00075108100C0050C0901A101850419012AE0
:1000D000A002150126A002950175108100C005013E
:1000E0000906A1018506050719E029E71500250184
:1000F0009508750181020507190029EF15002501F2
:1001000095F075018102050819012905950575010C
:100110009102950175039101C00660FF0961A1017B
:100120000962150026FF00952075088102096315F4
:100130000026FF00952075089102C005010906A15F
:1001400001050719E029E7150025019508750181CA
:10015000029501750881010507190029FF15002680
:10016000FF00950675088100050819012905950508
:1001700075019102950175039101C000DA0281FFBA
:10018000D9F1DB20A4A62EAF00A0C000A1C800AE0C
:10019000D580A81FD300408D14200041646A757378
:1001A00074005261697365004C6F77657200446535
:1001B0006661756C74004C617965723A20008081CB
:1001C00082838485868788898A8B8C8D8E8F909197
:1001D000929394A0A1A2A3A4A5A6A7A8A9AAABACF8
:1001E000ADAEAFB0B1B2B3B4C0C1C2C3C4C5C6C76F
:1001F000C8C9CACBCCCDCECFD0D1D2D3D400FD3755
:100200007A585A000004E6D6B446020021011600CE
:100210000000742FE5A3E0042F01425D003D8889B2
:10022000C65436C3174FE4DCCBB3DF6320E7D717E0
:1002300039D83D5F52C90BECB7E6D5195224B073DB
:100240006759B3E0B456C74788C96520CF4A3C9484
:100250000C015E29865C8E1FD2901470DD8177B20E
:10026000096EB5F6AEE987F3FD6E8628D433CFB8B4
:1002700075786A02A926DEE8E6250BF2F12FEB95E8
:10028000EF757127C27F9195E2635AB0D245B8727B
:10029000C0B554D7004EDE62BA2013945BD1FF592B
:1002A00021584935658A11E5CA1A8401C66412A726
:1002B000BCC461E80A8B8F1814972CD485C2CA116C
:1002C000139D8194454D5141C1135A07F3F59C8A02
:1002D0002EB089D73F3EF2C32110C396AA6256BA08
:1002E00070B31061455FB111971836BB16666F7B0E
:1002F000478FC44223D0767E3FA7ECEA0CBF277419
:10030000C309BD093C35A8EED8AEC7E9FF0F2F647D
:10031000DF72C5CDF6701A8177ECEF634989711EE3
:10032000FAEC985A059B0A0F6BC0B382F93085B07E
:10033000A8A630E1DE91E0E101A42FEECFFAB4CC23
:1003400009FA55E9DC3EB4782343F5F745FEAA6A7D
:100350007F620EBDEBFB2CF315BF380D4959E00051
:1003600000005614AADD3187545C0001DE02B0089B
:100370000000C0E5C082B1C467FB020000000004B9
:10038000595A2B0014001A00080015001700E0004D
:1003900004001600070009000A00E1001D001B0010
:1003A000060019000500000000000000E300105FD7
:1003B0002C002A00130012000C0018001C0034004E
:1003C00033000F000E000D000B002900380037002D
:1003D000360010001100000000000000E600115F70
:1003E00028002B001E001F00200021002200E0003A
:1003F00000000000000000000000E100000000001C
:10040000000000000000000000000000E300010008
:100410002C002A00270026002500240023000000CD
:1004200000004F005200510050000000000000008A
:10043000000000000000000000000000E6000100D5
:1004400028002B001E021F02200221022202E000CF
:1004500000000000000000000000E10000000000BB
:10046000000000000000000000000000E3000100A8
:100470002C002A002702260225022402230235002E
:10048000310030002F002E002D00350231023002E5
:100490002F022E022D02000000000000E6000100E5
:1004A0002800005C00000000000000000000C25CAA
:1004B000C55CC75CC95C00000000C35CC65CC85C6E
:1004C000CA5C00000000000000000000E300010022
:1004D0002C000000000000000000000000000000F0
:1004E000000000000000000000000000000000000C
:1004F000000000000000000000000000E600010015
:10050000280001000100BA037A0FAD0F00000200BD
:100510000200B6037A0FAD0F000003000100BB0319
:100520007A0FAD0F000004000200A0037A0FAD0F98
:10053000510905000100BC037A0FAD0F0000060051
:100540000200A2037A0FAD0F000007000200B803FB
:100550007A0FAD0F000008000100BD037A0FAD0F48
:10056000000012000200BE037A0FAD0F000013005E
:100570000200C0037A0FAD0F000014000100C20397
:100580007A0FAD0F0000150000000000D5087619A5
:10059000000000AF00AE09025B00030100A0FA09F1
:1005A00004000001030101000921110100012240A2
:1005B000000705810308000109040100020300008F
:1005C00000092111010001222200070582032000F9
:1005D00001070503032000010904020001030000D4
:1005E00000092111010001226D000705840320008C
:1005F0000112010002000000085346010001000141
:100600000203011C037600690061006C003A006679
:1006100000360034006300320062003300630000E3
:10062000000C0343006F0072006E006500000010B4
:100630000366006F006F007300740061006E0000BD
:100640000004030904000000000000000000000096
:10065000000000000000000000000000000000009A
:100660000000000000000000007E0F00D4FFFFFF2C
:10067000C70000007800000000000000002A2B28BE
:10068000000000000000000000000000000000006A
:1006900029000000002C1E34202122243426272586
:1006A0002E362D3738271E1F2021222324252633BE
:1006B00033362E37381F0405060708090A0B0C0DC0
:1006C0000E0F101112131415161718191A1B1C1DD2
:1006D0002F3130232D350405060708090A0B0C0DB0
:1006E0000E0F101112131415161718191A1B1C1DB2
:1006F0002F3130354C0000000000003E5B4F5B3E68
:10070000003E6B4F6B3E001C3E7C3E1C00183C7E46
:100710003C18001C577D571C001C5E7F5E1C0000AF
:10072000183C180000FFE7C3E7FF0000182418007A
:1007300000FFE7DBE7FF0030483A060E0026297984
:10074000292600407F05050700407F05253F005A08
:100750003CE73C5A007F3E1C1C0800081C1C3E7FE6
:100760000014227F2214005F5F005F5F0006097F94
:10077000017F00006689956A006060606060009497
:10078000A2FFA2940008047E04080010207E20101E
:100790000008082A1C0800081C2A0808001E10105F
:1007A0001010000C1E0C1E0C0030383E38300006B5
:1007B0000E3E0E060000000000000000005F00007A
:1007C00000000700070000147F147F1400242A7F14
:1007D0002A12002313086462003649562050000094
:1007E0000807030000001C224100000041221C00F9
:1007F000002A1C7F1C2A0008083E080800008070A0
:1008000030000008080808080000006060000020B0
:1008100010080402003E5149453E0000427F40005E
:10082000007249494946002141494D3300181412CC
:100830007F10002745454539003C4A494931004170
:100840002111090700364949493600464949291E00
:1008500000000014000000004034000000000814F4
:100860002241001414141414000041221408000240
:1008700001590906003E415D594E007C1211127C5F
:10088000007F49494936003E41414122007F4141B4
:10089000413E007F49494941007F09090901003E65
:1008A00041415173007F0808087F0000417F4100EB
:1008B000002040413F01007F08142241007F40405A
:1008C0004040007F021C027F007F0408107F003E32
:1008D0004141413E007F09090906003E4151215E28
:1008E000007F091929460026494949320003017F42
:1008F0000103003F4040403F001F2040201F003FB9
:100900004038403F00631408146300030478040374
:10091000006159494D4300007F41414100020408F4
:10092000102000004141417F000402010204004008
:100930004040404000000307080000205454784025
:10094000007F284444380038444444280038444454
:10095000287F0038545454180000087E09020018FB
:1009600024241C78007F080404780000447D4000A3
:10097000002040403D00007F102844000000417FDF
:100980004000007C04780478007C08040478003877
:1009900044444438007C1824241800182424187C6B
:1009A000007C080404080048545454240004043F04
:1009B0004424003C4040207C001C2040201C003C83
:1009C0004030403C004428102844004C9090907CDB
:1009D000004464544C440000083641000000007795
:1009E0000000000041360800000201020402003C41
:1009F0002623263C0000000000000000000000004C
:100A00000000000000C0E0F0F8F81800C0F0FCFEA4
:100A1000FFFFFFFFFFFFFF7E00000000000000005F
:100A20000080C0E0E0E0E0E0E0E0E0C08000000046
:100A30000080C0E0E0E0E0E0E0E0E0C08000000036
:100A4000E0E0C0C0E0E0E0E00000E0E0C0C0E0E0E6
:100A5000E0E0E0C0800000000080C0E0E0E0E0E016
:100A6000E0E0E0C0800000000000000000000000A6
:100A7000000000E0F0F0F0E0ECEEF7F37020007C16
:100A80007C7C7E007E7E7E7F7F7F000080C0E07E5B
:100A90005B4F5BFEC00000C000DCD7DEDEDED7DCD3
:100AA00000C0000000000000000000000000000086
:100AB0000000000000000000000000000000F8FC42
:100AC000FEFFE000FFFFFFFFFFFF80FFFFFFFFFFD4
:100AD000FFFFFFFF1F0701000000000000000000F3
:100AE000FFFFFF8100000000000081C3C3C30000BE
:100AF000FFFFFF8100000000000081FFFFFF0000FA
:100B0000FFFFFF01000000000000FFFFFF010000E9
:100B1000000001FFFFFF0000FFFFFF9D1C1C1C1CCD
:100B20001C1C9DDFDFDF0000000000000000000053
:100B30000000000F1F3F7F7F7F7F7F3F1E0C001F45
:100B40001F1F3F003F3F3F7F7F7F00307B7F78301C
:100B5000202030787F3B0003000F7F0F0F0F7F0FA7
:100B60000003000000000000000000000000000082
:100B70000000000000000000000000000000030F63
:100B80001F3F3F3F3F1F1F3F3F7F7F7F3F3F1F3F35
:100B90007F7F7F7F7C7878381C0F0000000000008A
:100BA0000001030707070707070707030100000005
:100BB00000010307070707070707070301000000F5
:100BC00007070700000000000000070707000000FB
:100BD00000000007070700000001030707070707D9
:100BE00007070703010000000000000000000000EC
:100BF00000000000000000000000000000000000F5
:100C000000000000000000000000000000000000E4
:100C100000000000000000000000000000000000D4
:100C200000000000000000000000000000000000C4
:100C3000000000000045464765666700202B2D2E0A
:100C400030313233343536373839680011241FBE1D
:100C5000CFEFDAE0DEBFCDBF11E0A0E0B1E0E0E32E
:100C6000FCE602C005900D92AC3DB107D9F726E035
:100C7000ACEDB1E001C01D92AD3CB207E1F70E94BE
:100C8000DE280C94DC350C940000FC01AC014C5FB8
:100C90005F4F8FEF91E32191822728E030E087FFBB
:100CA00009C0880F892721503109C9F7E417F507D2
:100CB00091F70895880FF7CFE8EDF0E080818E7FFF
:100CC00080831092E2001092DA001092E100A0EE10
:100CD000B0E08C9181608C9380818F77808319BC88
:100CE000A7EDB0E08C918E7F8C9380818F7E808386
:100CF00010928E0408952091E4003091E50095E66D
:100D0000A9012091EC00822F817020FF06C0809104
:100D1000E80080FF06C080E008952091E80022FDF1
:100D20001AC08091BC04882389F0853089F08091B5
:100D3000EB0085FD0FC02091E4003091E5004217E3
:100D40005307F9F29150E1F684E0089582E00895A6
:100D500083E0089581E00895EF92FF920F931F932F
:100D6000CF937C018B010E947B06C82F811117C095
:100D70008091E80085FD0BC08091E8008E7780931C
:100D8000E8000E947B06882399F3C82F08C0F7016A
:100D900081917F018093F1000150110949F78C2F57
:100DA000CF911F910F91FF90EF900895CF932091D5
:100DB000BC042430F9F4C091E900CF703091EC000C
:100DC000232F217030FD20E8C22B22E02093E90080
:100DD0002091E80020FF0BC050E040E060E270E0AE
:100DE0000E94AC068091E8008E778093E800CF7077
:100DF000C093E900CF9108958091B40487FF13C098
:100E00008091E80082FF06C08091E8008B77809394
:100E1000E80004C08091BC048111F2CF0895809154
:100E2000BC048823D9F38091E80080FFF8CF80913B
:100E3000E8008E77ECCF982F9093E900242F762F3F
:100E400050E0891731F07091EC002091ED00509145
:100E5000F00021FD07C09F5F973071F78093E90094
:100E600081E008953091EB003E7F3093EB003091AC
:100E7000ED003D7F3093ED003091EB003160309319
:100E8000EB007093EC002093ED005093F000209164
:100E9000EE0027FDE0CF80E00895B0E0A0E0E3E5BC
:100EA000F7E00C944D34C8EDD0E088818F7E8883C4
:100EB000E7EDF0E080818160808384E082BF81E0A3
:100EC00080938E0488818E7F888302EE10E0F80183
:100ED00010821092DA0081EEC82ED12CF601108219
:100EE00088818F77888388818068888388818F7DD7
:100EF000888319BC1092BC041092B3041092B204FF
:100F00001092B10490EEE92EF12CF70180818B7FD5
:100F1000808388818160888342E060E080E00E9475
:100F20001B07F60180818E7F8083F80180818160BC
:100F30008083808188608083F70180818E7F8083B9
:100F4000888180618883CDB7DEB7E8E00C9469348E
:100F5000FC01CB012091BA043091BB04261737075E
:100F600090F0009729F42091E8002E772093E80074
:100F700040E0009751F4411108C08091E80082FFE1
:100F800031C080E00895C901F3CF2091BC04222331
:100F9000A9F12530A9F12091E80023FD2DC0209171
:100FA000E80022FDEACF2091E80020FFE2CF309157
:100FB000F3002091F200009719F02830310558F025
:100FC00041E02830310509F040E02091E8002E771B
:100FD0002093E800CECF41914093F10001972F5F1D
:100FE0003F4FE9CF8091BC04882341F0853041F028
:100FF0008091E80083FFC1CF81E0089582E00895E9
:1010000083E008950895089580919004089587E7F6
:1010100097E7909301088093000888E19AE00FB663
:10102000F894A895809360000FBE90936000FFCF66
:10103000A4E0B0E0EEE1F8E00C9453348FB7F894FC
:101040002091850430918604409187045091880452
:1010500029833A834B835C838FBF69817A818B813B
:101060009C812496E2E00C946F349C0180913001C5
:101070008823C9F08091890487FF15C0E62FE69583
:10108000E695E695603FE0F4E20FF32FF11D6770FF
:1010900081E090E001C0880F6A95EAF7809592811F
:1010A000892382830895F9013296285F3F4F819109
:1010B000681303C0DF0111971C92E217F307B9F719
:1010C000089520918204309183042817390771F024
:1010D0009093830480938204E0918004F0918104D2
:1010E000309721F00084F185E02D09950895209135
:1010F0007E0430917F042817390771F090937F04A4
:1011000080937E04E0918004F0918104309721F077
:101110000680F781E02D09950895452B39F0682365
:1011200081E06F3F09F080E08170089581E0FCCF9D
:10113000AC0130917A0460917B04232F621301C0CB
:101140000895822F90E0FC01EE0FFF1FEE58FB4F39
:101150000190F081E02DE417F50791F467E0649FBA
:10116000F001659FF00D1124E45DFB4F41E04483E5
:101170002313E6CF01968370992780937A0408950C
:101180000196282F2370DACF1092C9031092C8035A
:10119000ECE2F4E08581811102C014821682379658
:1011A00084E0E237F807B1F70895B0E0A0E0EBED96
:1011B000F8E00C9449344B018FEF9FEF4430510518
:1011C00008F46AC04091890441FB882780F990E0C7
:1011D000880F991F42FB002700F910E0000F111F34
:1011E000000F111F802B912B40FBAA24A0F8B12CDB
:1011F000A82AB92A43FB882780F9C82FE0E0DE2F10
:1012000053E0CC0FDD1F5A95E1F7CA29DB2944FBD7
:10121000AA27A0F9B0E064E0AA0FBB1F6A95E1F726
:10122000AC2BBD2B45FBEE27E0F9F0E075E0EE0FAF
:10123000FF1F7A95E1F7EA2BFB2B46FB222720F9CB
:1012400030E0A6E0220F331FAA95E1F72E2B3F2BAB
:1012500047FB442740F950E05695542F44275795B3
:101260004795242B352B80918A04982F9170D92E85
:10127000C22ED32A86958170F82EFF0CE12CCE2841
:10128000DF280D2C000CEE08FF08F401C082D1828B
:10129000E282F38290E080E0CDB7DEB7ECE00C9420
:1012A00065348091A0039091A10390932D018093C8
:1012B0002C01089580E00895F894E82FE295EF70EE
:1012C000F0E041A18F7021E030E0B90102C0660F6B
:1012D000771F8A95E2F7CB01962F9095942391A3DF
:1012E00092A1892B82A3789408959091890492FF0A
:1012F00006C0282F28712830F9F4877F846093FF77
:1013000006C0282F28712831F1F4877E846120914E
:101310008A0420FF06C0382F38713830D9F4877F0F
:10132000816021FF06C0282F28712831D1F4877EE3
:10133000816194FD877E0895282F24712430F9F669
:101340008B7F8860DCCF282F2471243101F78B7EBE
:101350008861DDCF382F3171313019F78E7F886089
:10136000E0CF282F2171213121F78E7E8861E1CFD6
:10137000CF93DF93EC01803E910509F467C058F5E7
:101380008133910509F4AFC090F48932910509F4D5
:101390009FC08A9709F4AEC0C130D10509F469C075
:1013A000CE010497813A910508F463C05BC089338C
:1013B000910509F43FC082389105E1F1C59709F420
:1013C00082C0C83AD10508F09CC0C53AD10520F3C7
:1013D000A497D0644EC0843E910509F459C070F4BE
:1013E000823E910509F441C0833E910509F445C050
:1013F000CE01815E91090797A8F53BC0863E910515
:1014000009F451C0873E910509F452C0811523E5C6
:10141000920708F09CC0811532E5930708F0FBC0E5
:10142000811540E2940708F07BC08F3F910549F297
:1014300040F21FC080918904837009F01AC1809125
:101440008A0483FF16C0C9E2D0E013C080918904EA
:1014500080FD46C090918A0490FF0BC0C3EED0E09F
:1014600084FF07C0D0E0C0E004C08091890482FD01
:10147000F5CFCE01DF91CF9108958091890482FD4F
:10148000F5C090918A0490FDF4C084FFF2CFEACFBA
:1014900080918A0481FFEDCF80918904C7EED0E06E
:1014A00084FDE0CFE6CF8091890483FDF7CFE1CFC3
:1014B0008091890483FDE0C090918A0491FFE5CF7B
:1014C000C4EED0E0D6CF8091890485FFD2CFBBCFC8
:1014D0008091890485FDD3C080918A0483FFC9CFA0
:1014E000C9E3D0E0C6CF8091890486FFC2CFCAE2AB
:1014F000D0E0BFCF8091890486FFBBCFC1E3D0E0AD
:10150000B8CFCF3BD10508F073CFC85AD0E0CC0F8D
:10151000DD1FC557DE4F0990D881C02DD464A9CFF7
:10152000C11581E5D80770F4C11520E5D20708F090
:101530005DC0CE0190548115904108F093CFDF70CB
:10154000D06A97CFDC2FCC27C16FD06A92CF81159C
:101550009945A0F5C11588E5D80708F074C0C115F4
:1015600025E5D207C8F4C11534E5D30708F066C0F5
:10157000CE018370992721E030E002C0220F331F93
:101580008A95E2F7C695C69540E2C49FE001112412
:10159000C22BD32BDA686DCFCE0195558F3F9105C5
:1015A00011F008F05FCF8C2F0E947509C82FD0E092
:1015B000DC2FCC27CC27DF71D0625BCFC1158AE549
:1015C000D80708F445C0CE0190568115904208F026
:1015D00049CF8D2F8F710E94750990E0982F882731
:1015E00088279F719C012C2BE901E6CF2C2F269593
:1015F0002695237040E2249F900111248C2F837044
:10160000C1E0D0E002C0CC0FDD1F8A95E2F7C22B0B
:10161000D32BDD682ECF8370992721E030E002C004
:10162000220F331F8A95E2F7C695C69580E2C89FC0
:10163000E0011124C22BD32BDC681BCFDC2FCC277D
:10164000C46FD06A16CFDC2FCC27C06FD06A11CF01
:101650008C2F8F700E94750934E0D695C7953A9506
:10166000E1F7CF70DC2FC82FD06903CFC2EED0E0F6
:1016700000CFC0EED0E0FDCEC6EED0E0FACEC5E39E
:10168000D0E0F7CE80918202882331F0109282025E
:1016900010928102109280020895982F9095809167
:1016A0007F03892380937F03089510925F02109235
:1016B0005E0210925D020895E0915C0290911B021F
:1016C000E91302C080E008952E2F30E058E0E59F36
:1016D000F0011124E45EFD4F5181561306C0508184
:1016E000581303C05281541304C0F9013196E770B6
:1016F000E7CF81E0089580915C0290911B029813DE
:1017000001C008958F5F8770FACF292F983078F540
:10171000863068F590E036E0239F800D911D1124FE
:10172000682F677023E0969587952A95E1F7FC016D
:10173000EE0FFF1FE80FF91FEF5FFD4F50E040E095
:1017400080E0219130E0062E02C0369527950A945C
:10175000E2F721703327042E01C0220F0A94EAF722
:10176000822B4F5F5F4F4330510559F7089580E05A
:101770000895292F983090F5863080F590E036E076
:10178000239F800D911D1124282F277041E001C057
:10179000440F2A95EAF723E0969587952A95E1F775
:1017A000FC01EE0FFF1FE80FF91FEF5FFD4F90E008
:1017B00080E070E05191DF0111979B01082E02C07B
:1017C000369527950A94E2F7217021952527242341
:1017D00025272C9301968330910561F70895282FD2
:1017E00092959F70963091F060F4925F9F70923066
:1017F00030F481E0203F81F030F4283E30F080E08A
:1018000008959A5FF3CF243FD1F7089581E0283EF1
:10181000E0F3213FA1F7F9CF08959C019A95811536
:101820009F4150F5D901AA27B170F901EE27F27056
:10183000B90166277470A9014427587034FF0EC09F
:1018400080E1AB2B09F480E0EF2B09F08062672B7D
:1018500009F08064452B89F08068089581E0AB2B06
:1018600009F480E0EF2B09F08260672B09F08460B7
:10187000452B19F08860089580E00895CF93DF9399
:10188000682F81E06A3019F06D3031F480E00E94F9
:10189000CC0CDF91CF9108958091CB069091CC062E
:1018A00026E0FC01A5ECB6E001900D922A95E1F747
:1018B000603E08F458C026E0FC0111922A95E9F731
:1018C000C091CB06D091CC0646E050E0BE0185EC3D
:1018D00096E00E9435359E01255C3440892B41F10C
:1018E000C90145E0969587954A95E1F741E050E0BA
:1018F000BA0102C0660F771F8A95E2F7CB016091AB
:10190000C3047091C404862B972BB9016B5F7F4F82
:10191000E5E076956795EA95E1F702C0440F551F1B
:101920006A95E2F7842B952B9093C4048093C304AB
:101930002A5F3F4F4091C204642F70E0C9010E94AA
:101940002F34481B463010F4240F311D211572E04E
:10195000370710F030E020E02B533B4F3093CC069C
:101960002093CB0696CFF6E06F9FB00111246B5009
:10197000794F46E050E00E949334A2CFCF93DF939B
:10198000EC01FE018491811103C0DF91CF91089594
:101990000E943E0C2196F5CFCF93382FE091CB06D5
:1019A000F091CC06E55CF4402091C204622F70E017
:1019B000CF010E942F34281B822F332361F066E071
:1019C0000E947A34C82FC15010F4CF91089580E25C
:1019D0000E943E0CF8CF9F01280F311D2115324087
:1019E00018F080E0F0E0E0E08E0F9F2F911D8B5308
:1019F0009B4F9093CC068093CB06E7CF80938B04CC
:101A000070938D0460938C048091BC048430F9F44D
:101A10008093E9008FEF9091E800815095FD06C01A
:101A200095ED9A95F1F700008111F5CF8091E800CE
:101A300085FF0DC050E040E063E070E08BE894E08B
:101A40000E94AC068091E8008E778093E8000895AC
:101A5000BC0184E00E94FE0C0895BC0183E00E945A
:101A6000FE0C0895CF93DF93D82FC92F80913001BA
:101A70008823C1F18091890487FF34C060E284E04B
:101A80008093E9008FEF9091E800815095FD06C0AA
:101A900095ED9A95F1F700008111F5CF8091E8005E
:101AA00085FF1DC08091300170E050E040E0811161
:101AB00004C050E040E068E070E08D2F9C2F0E9451
:101AC000AC068091E8008E778093E80080E2ED2FED
:101AD000FC2FA1E9B4E001900D928A95E1F7DF9126
:101AE000CF91089568E081E0CBCF9C01215031096E
:101AF00008F408958FE99FE00197F1F700C0000016
:101B0000F5CFB0E0A0E0E7E8FDE00C944B34F82E10
:101B1000E92ED62EC72E8A018091A402AA24A3946E
:101B2000B12C8A3018F48AE0A82EB12CC1E0D0E0A4
:101B30006D2D7C2D8F2D9E2DF8010995811104C0EE
:101B40002196AC16BD062CF4CDB7DEB7EAE00C94B6
:101B50006734CC9F9001CD9F300D300D112490E063
:101B600080E045E34A95F1F700000196821793075C
:101B7000C1F7DECF80918E02811110C08091D80014
:101B800080618093D8008AE18A95F1F700C0809146
:101B9000D90080FF0AC081E080938E0281E090919D
:101BA0008E02913009F080E0089582E080938E02E9
:101BB0000E945C061092BC04F1CF0E94BA0D8823EB
:101BC00059F0E0918004F0918104309729F0019060
:101BD000F081E02D0995089580E00895B0E0A0E03F
:101BE000E4EFFDE00C944D346C017B0164E670E0A1
:101BF00088E70E946530EC0197FD12C010E000E01C
:101C0000F601E00FF11F849164E670E00E94D53088
:101C1000EC01892B29F40F5F1F4F0E151F0581F76B
:101C20000E945731CE01CDB7DEB7E8E00C9469349D
:101C300080917D0390917E03911103C091E08927EB
:101C40000895882369F062E070E084E995E00E94DD
:101C5000EE0D892B19F080917D03089510927D037C
:101C600080917D03EBCFA5E0B0E0E9E3FEE00C94CA
:101C7000533480917D038D8380917E038823F1F01E
:101C80000E941808DC01CB01805A9541AF4FBF4F2D
:101C90008093790390937A03A0937B03B0937C03A2
:101CA0008D81811108C062E070E082E995E00E94B8
:101CB000EE0D892B41F080917D038D838D812596DA
:101CC000E2E00C946F3481E080937D03F4CF0F93B6
:101CD0001F93CF93DF9300EA13E0C7EAD1E0CE0170
:101CE0000E949235F80181938F012196CB3CF1E05F
:101CF000DF07A9F7CCE0D5E0FE018591949100972C
:101D000011F0FC0109952C96F5E0CC39DF07A1F71D
:101D1000DF91CF911F910F9108950F931F93CF9350
:101D2000DF93843030F5683020F5463010F5C42F4D
:101D3000D0E0CC0FDD1F2CE0629FC00DD11D11241F
:101D400030E6839FC00DD11D1124CE0187960E94DD
:101D50009235082F10E0102F0027CE0188960E94A0
:101D600092359801282BC901DF91CF911F910F91D6
:101D7000089590E080E0F8CF462F672F20917703F9
:101D800030917803232B91F4703F39F4403F71F484
:101D900080917503909176030895843038F47830FB
:101DA00028F4463018F40E948D0E089580E090E0EB
:101DB0000895B0E0A0E0EFEDFEE00C944E347C011D
:101DC0000091BD0480918302082BC7E0D0E010E0B1
:101DD000DC2EC8010C2E02C0959587950A94E2F777
:101DE00080FD09C02197A0F7D12C8D2DCDB7DEB78E
:101DF000E7E00C946A34B7018C2F0E94BC0E0E945D
:101E0000B809019779F3F1CFCF93DF93D82FC92F7A
:101E10000E94D90E6D2F7C2F0E94BC0E0E94B80923
:101E2000DF91CF910895CF93DF93EC014B815C81DB
:101E3000698188810E948D08811110C08E819F81E7
:101E4000009739F00E94B8090E94EF0BDF91CF9103
:101E50000895888199810E94040FF6CF80E0F6CF23
:101E6000A5E0B0E0E6E3FFE00C94523449835A83E6
:101E700089819A81662399F0222389F00E94D90EE4
:101E8000182F682F89819A810E94B90B69817A8104
:101E9000812F0E94BC0E2596E3E00C946E340E94C4
:101EA000850B182FF3CFFC01262F86819781009791
:101EB00039F4408151816281738184810E94300FA5
:101EC000089583E290E00E9492358B3E89F484E28B
:101ED00090E00E9492358F3159F485E290E00E94A3
:101EE000923591E08E3609F090E0892F8170089547
:101EF00080E0FCCF9C01CB01BA01F90132964591FB
:101F000054916417750748F0F901349665917491FE
:101F10000E94423590E080E008958FEF9FEF089592
:101F20000F931F93CF93DF9300EA13E0C7EAD1E04A
:101F3000CE010E949235F80161918F01681719F066
:101F4000CE010E94A0352196CB3CF1E0DF0781F75E
:101F5000DF91CF911F910F9108959C01DA010296B4
:101F6000FC0145915491FC0185919491A817B90702
:101F700058F0F9013496859194910E9442350E945F
:101F8000900F90E080E008958FEF9FEF0895CF933A
:101F9000DF93CFE2D2E060E0CE010E94A03521962F
:101FA000C11584E0D807B9F7DF91CF9108951F9349
:101FB000CF93DF93962F122F632F8430D8F498306D
:101FC000C8F44630B8F4C42FD0E0CC0FDD1F2CE0AD
:101FD000929FC00DD11D112490E6899FC00DD11D87
:101FE0001124CE0187960E94A035612FCE018896DC
:101FF0000E94A035DF91CF911F910895CF93C82FF4
:102000006FEF81116BEE83E290E00E94A0356FEFDD
:10201000C1116FE184E290E00E94A0356FEFC11121
:102020006EE685E290E00E94A035CF910895CF93AF
:10203000682FC92F84E090E00E94A0356C2F82E2C7
:1020400090E00E94A035CF910895AAE0B0E0EBE2C5
:10205000F0E10C944D34EFE0F3E084E6DF011D92F3
:102060008A95E9F7ECE2F4E086E4DF011D928A95B7
:10207000E9F78FE0C82E83E0D82E7F010BEC11E04A
:10208000F701D182C0824AE050E0B801CE0101964A
:102090000E94823588E0FE013196D60101900D92B2
:1020A0008A95E1F789859A85D70113969C938E933B
:1020B0001297BAE0CB0ED11CE7E0EE0EF11C065FE2
:1020C0001F4F0F32F2E01F07D9F62A96E8E00C9472
:1020D0006934A8E0B0E0EFE6F0E10C9452344091AE
:1020E000A0025091A1026091A2027091A3022FB7A9
:1020F000F8948091850490918604A0918704B09112
:1021000088042FBF841B950BA60BB70B11E08436F8
:102110009105A105B105A8F10E94BA0D8823B1F17E
:102120000E941808462F572FBC014E5F5F4F6F4F1C
:102130007F4F49835A836B837C83809111019091F7
:10214000120189569D4F20911001422F50E02530F9
:1021500010F044E050E0BE016F5F7F4F0E944235B7
:1021600082E090E00E94A232182F882351F00E9452
:1021700018086093A0027093A1028093A20290932A
:10218000A302812F2896E3E00C946E340E94180875
:102190006D837E838F8398874091A5025091A6021C
:1021A0006091A7027091A8028D819E81AF81B88550
:1021B000480F591F6A1F7B1FB8CFEF92FF921F93E2
:1021C000CF93DF9300D000D00F92CDB7DEB77B0165
:1021D00090E080E00E94A232182F882309F487C083
:1021E00080910301482F50E0882311F041E050E036
:1021F000609104017091050169567D4FCE010596ED
:102200000E94423540919302509194026091950250
:10221000709196022FB7F89480918504909186046E
:10222000A0918704B09188042FBF841B950BA60B47
:10223000B70B84369105A105B10540F488E992E019
:102240000E9445069D81891709F451C081E090E004
:102250000E94A23281111AC010E080918F029091E9
:102260009002A0919102B0919202F7018083918334
:10227000A283B383812F0F900F900F900F900F9038
:10228000DF91CF911F91FF90EF90089580910B0106
:10229000482F50E0853010F044E050E060910C0190
:1022A00070910D0169567D4FCE0101960E94423515
:1022B00088E992E00E9445069D818913CDCF0E9456
:1022C0001808609393027093940280939502909300
:1022D000960289819A81AB81BC8180938F02909311
:1022E0009002A0939102B093920211E0B6CF809138
:1022F000980290919902A0919A02B0919B028983D1
:102300009A83AB83BC831111E4CFA7CF1F920F92A6
:102310000FB60F9211242F933F934F935F936F93B8
:102320007F938F939F93AF93BF93EF93FF9380918E
:10233000E10082FF09C08091E20082FF05C0809128
:10234000E1008B7F8093E1008091DA0080FF24C060
:102350008091D80080FF20C08091DA008E7F80932A
:10236000DA008091D90080FF9BC080E189BD82E1C5
:1023700089BD09B400FEFDCF81E08093BC0480914B
:102380008E04811109C00E945C060E944D07809155
:10239000E20084608093E2008091E10080FF17C03A
:1023A0008091E20080FF13C08091E2008E7F8093D5
:1023B000E2008091E20080618093E2008091D80089
:1023C00080628093D80019BC85E08093BC04809122
:1023D000E10084FF29C08091E20084FF25C080E1F4
:1023E00089BD82E189BD09B400FEFDCF8091D8008E
:1023F0008F7D8093D8008091E1008F7E8093E100F3
:102400008091E2008F7E8093E2008091E200816003
:102410008093E2008091B304882309F447C084E0EC
:102420008093BC048091BC048091E10083FF27C0AD
:102430008091E20083FF23C08091E100877F809339
:10244000E10082E08093BC041092B3048091E1002B
:102450008E7F8093E1008091E2008E7F8093E20086
:102460008091E20080618093E20042E060E080E0E1
:102470000E941B078091F00088608093F000FF911C
:10248000EF91BF91AF919F918F917F916F915F91EC
:102490004F913F912F910F900FBE0F901F90189565
:1024A00019BC1092BC0410928E0476CF8091E30088
:1024B00087FD02C081E0B4CF83E0B2CF78941F9251
:1024C0001FB61F9211248F939F93AF93BF93809158
:1024D000850490918604A0918704B09188040196A8
:1024E000A11DB11D8093850490938604A093870459
:1024F000B0938804BF91AF919F918F911F901FBEA1
:102500001F9018959C014FB7F89480918504909185
:102510008604A0918704B09188044FBF821B930B5F
:1025200008952FB7F8948091850490918604A09126
:102530008704B09188042FBF0895A0E1B0E0E3EADA
:10254000F2E10C9449341A821982FE01339686E036
:10255000DF011D928A95E9F78BEBE82E81E0F82EDA
:1025600010E000E0CC24C394D12C25ECA22E21E075
:10257000B22EF70181917F018F3F09F445C0F89495
:10258000E82FE295EF70F0E021A18F70A60102C064
:10259000440F551F8A95E2F7CA01922F982B91A3F9
:1025A00092A18095892382A3789400C0EFEBF1E09B
:1025B00031E0912C21912F3F09F470C0A22FA295F8
:1025C000AF70B0E090968C9190E02F7002C095951E
:1025D00087952A95E2F780FD61C0832F982A330FF3
:1025E000AE16BF0639F7F701319780818F3F11F0A2
:1025F0000E945C0950EA5A95F1F7E1E0F0E0EC0F37
:10260000FD1FE00FF11F90820F5F1F4F0430110577
:1026100009F0AFCF48E050E0BE016F5F7F4F89EA1D
:1026200092E00E9435359C01892B49F088E0FE013B
:102630003196A9EAB2E001900D928A95E1F70091F6
:10264000B202232B69F181E0809386020E949112ED
:1026500090938502809384028091840290918502F8
:102660000E948212059700F110E0095F1C4F44E0C0
:1026700050E069EA72E0C8010E943535E12C892BEF
:1026800051F084E0E9EAF2E0D80101900D928A95D8
:10269000E1F7EE24E3941092860207C080E09ECF1B
:1026A000809186028111D8CFE12C0E94BA0DF82EBC
:1026B000E091B202882309F470C01A8619861C863C
:1026C0001B860E2F10E0095F1C4F8091A4028A30F8
:1026D00050F54DED50E1BE01675F7F4FC8010E948C
:1026E000810D882309F448C049E650E1BE01675FC7
:1026F0007F4FC8010E94810D8823F1F11092A4023E
:102700008091B10290E044E050E0BE01675F7F4FEE
:10271000895F9C4F0E94353521E020938D02892BE3
:10272000C1F4F12C23C080918702909188020E940D
:102730008212843F914068F680918D02882389F34C
:10274000FE01399684E0DF011D928A95E9F7109227
:102750008D02E091B102F0E0E95FFC4F89859A8536
:10276000AB85BC8580839183A283B3838F2D8E2913
:102770006096ECE00C9465348091A4028F3F31F0B8
:102780008F5F8093A4028A3008F4BACF0E9491121E
:102790009093880280938702CFCFF0E0E95FFC4FEF
:1027A00080819181A281B381809398029093990254
:1027B000A0939A02B0939B0288E992E00E9445069A
:1027C0008093970280909C0290909D02A0909E0220
:1027D000B0909F028091890290918A02A0918B0211
:1027E000B0918C0288169906AA06BB0609F499CF07
:1027F0008092890290928A02A0928B02B0928C02FF
:102800000E94BA0DF82E81118CCF0E941808861AEA
:10281000970AA80AB90A8092A5029092A602A092ED
:10282000A702B092A802A2CFCF93C82F80918A04AA
:1028300082FF0CC0809182028C1741F00E9491129D
:102840009093810280938002C0938202CF91089579
:102850008091A2039091A303892B91F00E94911281
:102860002091800230918102AC01421B530B9A01EE
:1028700081E04091A2035091A3032417350708F487
:1028800080E08170089580917F039091BE04892B30
:102890008093DE0180918202882319F18091A20346
:1028A0009091A303892B29F00E94281481110E9482
:1028B000420B8091DE0190918202892B8093DE0190
:1028C000809130018823E1F18091890487FF38C02D
:1028D0008EE1E0EEF1E090E08150A0F591110E94D0
:1028E000420B40E250E060E672E08EED91E00E9423
:1028F0003535892B21F180E2EEEDF1E0A0E6B2E082
:1029000001900D928A95E1F7E0918004F0918104A5
:102910003097A9F080913001882359F08091890483
:1029200087FF07C08091DE018093DF0186E08093FE
:10293000DE010280F381E02D8EED91E0099508958E
:1029400086E0C7CF2191222339F29F5FC5CF8091C6
:102950002E01877F80932E019091BE049D7F9093DE
:10296000BE0484FF08C08F7E80932E0180917F0378
:10297000826080937F0380912E0185FF08C08F7D48
:1029800080932E0180917F03806280937F030E9459
:102990004314089590E080E00E94770890E080E082
:1029A0000E9461081092BE040E944314089580930F
:1029B000BD040E94CA1408958091BD04982F96709A
:1029C000963021F488600E94D7140895877FFBCF4A
:1029D00021E030E001C0220F8A95EAF7209580912E
:1029E000BD0482230E94D714089590915F028095C0
:1029F000892380935F02282F277091F4282F082EB7
:102A0000000C330B9217130659F090918A0492FF31
:102A100007C08595859585950E94E8140E94550B01
:102A2000089590918A0492FB222720F9281769F0D3
:102A300080FB92F990938A048091890490918A0492
:102A40000E94171082E00E94F514089521E030E002
:102A500001C0220F8A95EAF78091BD04822B0E9463
:102A6000D714089590918A0492FF10C098E0899F2E
:102A700090011124622B60935F020E9426150E9430
:102A8000911290935E0280935D0208950E94261534
:102A90000895809383020E94CA14089510927F03C0
:102AA00080913001E0EEF1E0882361F080918904AB
:102AB00087FF08C08EE1DF011D928A95E9F70E9429
:102AC000CA14089586E0F7CFAAE2B0E0EAE6F5E19D
:102AD0000C94523484EB94E0FC0101962091F100B7
:102AE000208324E08C3B9207B9F78091B5048930AC
:102AF00009F456C0C8F4823009F4B3C0833009F435
:102B000082C0813071F18091E80083FF92C2809190
:102B1000B4049091B5049A3008F08BC2E92FF0E02C
:102B2000E252FA4C0C9486348A3009F489C08B3016
:102B300051F78091B404813231F78091B8049091BB
:102B4000B904892B01F78091E800877F8093E80022
:102B50000E94FC068091B604809330010E944E15BD
:102B6000D2CF8091B404813A71F68091E800877FDA
:102B70008093E8008091B8049091B904892B61F4A6
:102B800060E281E994E070E00E94A8078091E8008B
:102B90008B778093E800B7CF60E090E080E0F3CFE0
:102BA0008091B404813209F0AECF8091B804909145
:102BB000B9048D7F892B09F0A6CF8091E800877F2B
:102BC0008093E8008091E80082FF18C09091F300A4
:102BD0008091F200029731F48091F100813011F080
:102BE000863021F48091F100809390048091E80078
:102BF0008B778093E8000E94FC0685CF8091BC040F
:102C00008111E0CF80CF8091B404813A09F07BCF6D
:102C10008091B8049091B904892B09F074CF809108
:102C2000E800877F8093E8008091E80080FFFCCF78
:102C3000809130018093F1008091E8008E77D9CFA8
:102C40008091B404813209F05ECF8091E800877FE3
:102C50008093E8000E94FC068091B70480938F0463
:102C600052CF8091B404813A09F04DCF8091E800B1
:102C7000877F8093E8008091E80080FFFCCF8091FF
:102C80008F04D8CF803899F0823809F0D2C1809172
:102C9000B8048F70873008F0CCC18093E900809130
:102CA000EB0085FB882780F91092E90006C080912F
:102CB000B1049091B204911182609091E800977FE5
:102CC0009093E8008093F1001092F1008091E80069
:102CD0008E77ABC1882309F499C1823009F0A9C16C
:102CE0008091B60481119CC18091B8048F702FEF40
:102CF000280F263008F09DC18093E9002091EB0059
:102D000020FF8EC1933031F48091EB00806280937C
:102D1000EB0086C19091EB0090619093EB0021E075
:102D200030E001C0220F8A95EAF72093EA00109262
:102D3000EA008091EB008860EACF81117AC110919E
:102D4000B6041F778091E3008078812B8093E300A5
:102D50008091E800877F8093E8000E94FC068091C4
:102D6000E80080FFFCCF8091E30080688093E3005F
:102D700082E0111183E08093BC045BC180588230F3
:102D800008F057C14091B6045091B7044C3D83E020
:102D90005807A1F583E08A838AE289834FB7F894C4
:102DA000DE01139620E03EE051E2E32FF0E0509385
:102DB0005700E49120FF03C0E295EF703F5FEF7092
:102DC0008E2F90E0EA30C0F0C7968D939D932F5FD1
:102DD000243159F74FBF8091E800877F8093E80046
:102DE0006AE270E0CE0101960E94A8078091E80097
:102DF0008B778093E8001DC1C096E7CF8091B8041F
:102E00009091B904252F33272330310509F44AC0A6
:102E100078F52130310509F486C08BE590E0E6E9CC
:102E2000F5E02230310509F004C12091E800277F48
:102E30002093E8002091BA043091BB0482179307D5
:102E400008F49C0140E02115310509F071C04111E1
:102E50006FC08091E80082FDC9CF8091BC048823B7
:102E600029F2853019F28091E80083FFF2CFBECFBE
:102E70002132310509F448C02232310509F0D9C0A8
:102E80008330910508F0D5C0FC01EE0FFF1FE05321
:102E9000FE4F0190F081E02D83539E4FDC018C9119
:102EA00090E026C0CA019927423031F18330910564
:102EB00068F40097B1F0019709F0BBC0EFE2F6E0CB
:102EC000E4918E2F90E0EFE2F6E012C0039709F054
:102ED000B0C0E3E0F6E0E4918E2F90E0E3E0F6E0AE
:102EE00007C0E1E4F6E0E4918E2F90E0E1E4F6E043
:102EF000009709F49EC099CFE1E2F6E0E4918E2FAD
:102F000090E0E1E2F6E0F4CF8330910508F091C063
:102F1000880F991FFC01EA52FE4F0190F081E02DCD
:102F200089E090E082CF82E190E0E1EFF5E07DCFB3
:102F30008091BC04882309F459CF853009F456CF19
:102F40008091E80083FD52CF8091E80082FD81CF1F
:102F50008091E80080FF77CF9091F3008091F2009C
:102F60002115310519F08830910550F041E008979E
:102F700009F040E08091E8008E778093E80063CF0D
:102F800044914093F1003196215031090196E8CFE8
:102F9000803809F04EC08091E800877F8093E80078
:102FA0008091B3048093F10091CE811142C01091C1
:102FB000B6041230F0F58091E800877F8093E80036
:102FC0001093B3040E94FC06112311F084E005C0A5
:102FD0008091E30087FDFACF81E08093BC0442E05A
:102FE00061EC81E00E941B0742E261EC84E00E94F8
:102FF0001B0742E261EC82E00E941B0742E260ECA8
:1030000083E00E941B078091BC0413C08091B6042A
:10301000813079F481E0933009F080E08093B2044C
:103020001092E9008091E800877F8093E8000E9479
:10303000FC068091E80083FF0AC08091E800877F4A
:103040008093E8008091EB0080628093EB00AA9669
:10305000E3E00C946E341F920F920FB60F9211247E
:103060002F933F934F935F936F937F938F939F9390
:10307000AF93BF93CF93DF93EF93FF93D091E9008A
:10308000DF708091EC00C82FC17080FDC0E8109205
:10309000E9008091F000877F8093F00078940E948F
:1030A00064151092E9008091F00088608093F00030
:1030B000CD2BCF70C093E900FF91EF91DF91CF91BD
:1030C000BF91AF919F918F917F916F915F914F9140
:1030D0003F912F910F900FBE0F901F901895E0EA2F
:1030E000F3E0128E138E8FEA90E09183808385E067
:1030F000848F28E833E13383228322E330E0378B67
:10310000268B24EB30E0318F208F158E178E168E94
:1031100020E530E031A320A382A30E94900F0E94FB
:103120004E1510928A0410928904EAE8F4E0808136
:10313000846080838091890490918A040E94171092
:103140000E94670E0895AAE0B0E0E9EAF8E10C9465
:103150004834A0907303B090740381E090E09093A2
:10316000740380937303912C812CE12C6401F12C66
:1031700015C0F80125913491472D6F2D8E2D0E9499
:10318000D70F0E5F1F4F739486E07812F2CF96E050
:10319000C90ED11CF394E8E0FE1639F08601000F49
:1031A000111F0E571C4F712CE4CFE394F0E38F0EE8
:1031B000911C84E0E812DACF0E946F18FE0131966C
:1031C0007F018AE011928A95E9F70BEC11E04AE061
:1031D00050E0B801C7010E94C435065F1F4F0F328F
:1031E000F2E01F07A1F7B0927403A09273032A962E
:1031F000EDE00C94643480E00E94FE0F60E086E213
:1032000090E00E94A0350E94A3180E94C70F81E0A1
:103210000E94FE0F089568EE7EEF90E080E00E942D
:10322000BE3560E082E090E00E94A03560E083E07F
:1032300090E00E94A0351092830260E084E090E06C
:103240000E94A03564E082E290E00E94A03560E038
:1032500085E090E00E94A03560E086E090E00E946A
:10326000A0356FEF87E090E00E94A03540E050E08D
:10327000BA0188E090E00E94B23560E08DE090E015
:103280000E94A03540E050E0BA0188E190E00E9441
:10329000B23560E087E190E00E94A03540E050E068
:1032A000BA018CE190E00E94B23570E060E080E20B
:1032B00090E00E94BE3540E050E0BA0188E190E025
:1032C0000E94B23580E00E94FE0F0E94FB1840E091
:1032D00050E0BA018FE090E00E94B23540E050E04B
:1032E000BA0183E190E00E94B2350895CF92DF9257
:1032F000EF92FF92FB018FEF9FEF4430510508F4EE
:103300007FC0C080D180E280F3800E944E15D7013B
:10331000C601B695A795979587958170282F220F9E
:10332000D701C60181709927AA27BB27822BB70135
:10333000A60132E076956795579547953A95D1F76E
:103340004170440F440F842BB701A601E3E076954A
:10335000679557954795EA95D1F74170440F440F0B
:10336000440F842BB701A601F4E076956795579535
:103370004795FA95D1F741704295407F842BB7016C
:10338000A601A5E07695679557954795AA95D1F73B
:1033900041704295440F407E842BB701A601B6E0F0
:1033A0007695679557954795BA95D1F741704295AF
:1033B000440F440F407C842BB701A60197E076951B
:1033C0006795579547959A95D1F74795442747951F
:1033D000842B80938904D1FA882780F9880F9D2D4A
:1033E0009170892B90918A049C7F892B80938A0409
:1033F0008091890490918A040E94171090E080E0E7
:10340000FF90EF90DF90CF9008950E944E152FEF20
:1034100084E39CE0215080409040E1F700C0000030
:1034200088E19AE00FB6F894A895809360000FBEEB
:1034300090936000FFCF882341F080959091BE0467
:1034400089238093BE040E9443140895882339F091
:103450009091BE04892B8093BE040E94431408956A
:10346000882321F00E944D0B0E9443140895882365
:1034700039F090917F03892B80937F030E9443143E
:103480000895682F882341F18CEF860F813A38F434
:103490008EED91E00E9435080E944314089580E269
:1034A000860F883048F4677081E001C0880F6A9504
:1034B000EAF70E944D0BF0CF8BE5860F833028F49E
:1034C00090E080E00E9477080895685A673120F400
:1034D00090E080E00E9461080895CF93DF93EC01B3
:1034E0000E94411ACE010E940D0C9E01205E3109FE
:1034F0002830310510F0CD2B29F40E94301ADF91CD
:10350000CF9108950E941B1AFACFCF93C82F88231A
:1035100009F445C08CEF8C0F813A08F068C08091A7
:1035200030018823F1F18091890487FF3AC0EC2FA4
:10353000E695E695E695F0E0E252FE4F828190E056
:103540004C2F477021E030E002C0220F331F4A9514
:10355000E2F782239323892B61F06C2F8EED91E0AB
:103560000E9435080E94431426C08091890487FF79
:1035700026C0AC2FA695A695A695B0E0A252BE4F48
:10358000C77021E030E001C0220FCA95EAF7129619
:103590008C911297822B12968C930E944314CF9198
:1035A0000895E0EEF1E086EE91E02191C217A9F2D4
:1035B0008E179F07D1F7809130018111D6CFA0EEF1
:1035C000B1E0EFEF80E09D91C91739F3EF3F19F4B7
:1035D000911101C0E82F8F5F8630A9F7EF3FE9F224
:1035E0000E2E000CFF0BE252FE4FC283D6CF80E2BC
:1035F0008C0F883068F4C77021E030E001C0220FE2
:10360000CA95EAF780917F03822B80937F03C5CF11
:103610008BE58C0F833038F42C2F2452330BC901E7
:103620000E947708BCCFC85AC73108F0B8CFEC2F3A
:10363000F0E0EE0FFF1FE557FE4F808191810E9461
:103640006108ADCF0F931F93CF93C82F0091C00394
:103650001091C103893321F00091BE031091BF0383
:103660008C2F0E94851A0115110539F48C2F0E94A8
:10367000411ACF911F910F9108958FE99FE0019713
:10368000F1F700C0000001501109EDCFFF920F9338
:103690001F93CF93DF93C62FD42F122FFC0182816B
:1036A0008823A9F06093C1040E9491129093C004F2
:1036B0008093BF04C77081E001C0880FCA95EAF704
:1036C0000E94371ACDB7DEB7E5E00C946C348091D8
:1036D000C104681330C08091BF049091C0040E945F
:1036E0008212843B910538F500E20D0FCD17A9F049
:1036F000C770FF24F3948F2D01C0880FCA95EAF795
:103700000E94301A083048F48D2F877001C0FF0CDA
:103710008A95EAF78F2D0E94371A812F0E94221B6B
:10372000083080F6D77081E001C0880FDA95EAF79B
:103730000E94301AC7CFC77081E001C0880FCA95B8
:10374000EAF7F6CFB0E0A0E0E8EAFBE10C944B34F6
:10375000EC018AE0A82E2881222309F48FC02130B1
:10376000C9F599818A81913021F422960E94221B09
:1037700005C0923029F422960E94851A2196EBCF3B
:10378000933021F422960E94411AF8CF943011F020
:103790002196F4CF229630E020E0AE014F5F5F4FDC
:1037A0008053990B8A30910550F02150310930F344
:1037B0008FE99FE00197F1F700C00000F6CFA29ECD
:1037C000B001A39E700D11249C01260F371F898123
:1037D000EA01E3CFE22FF0E0EB58F94FB490822FEB
:1037E00086958695869590E0FC01EB59F94FE4901B
:1037F0002770F12C022E02C0F594E7940A94E2F7A8
:1038000031E0E322FF24FC01EB5AF94FC490D12CA4
:10381000022E02C0D594C7940A94E2F731E0C32285
:10382000DD24FC01EB5BF94F049110E002C015951B
:1038300007952A95E2F701701127E114F10419F0B8
:1038400081EE0E94851AC114D10419F086EE0E94FF
:10385000851A8B2D0E94221BC114D10419F086EE0B
:103860000E94411AE114F10419F081EE0E94411AFC
:103870000115110509F482CF8CE278CFCDB7DEB700
:10388000EAE00C946734CF93DF93EC010E940D0CB7
:103890009E01205E31092830310510F0209741F457
:1038A0000E94371A8C2F0E94851ADF91CF910895BC
:1038B0000E94261AF7CF662329F02091BE042260C9
:1038C0002093BE049C013056211540E2340720F0BD
:1038D000305E2115304108F499270E94431C089559
:1038E000B0E0A0E0E6E7FCE10C944E34EC018B0183
:1038F000D42E80912E0182FF89C0E090C603F09003
:10390000C703EC16FD0619F0209709F07FC08091DF
:103910002E018B7F80932E01C1E081FD10C080912C
:10392000C4039091C5039801281B390BC1E0809115
:103930002C0190912D012817390708F4C0E0C170BF
:1039400080912E01C0FB81F980932E01F70183E065
:10395000F695E7958A95E1F7EE71FF27E058FC4F61
:1039600020813181A7014F70552781E090E002C08E
:10397000880F991F4A95E2F7CC2309F442C0822BA5
:10398000932B9183808380917F0381FF08C0809176
:103990002E01806180932E0182E00E944D0B809168
:1039A0007F0385FF08C080912E01806280932E01E5
:1039B00080E20E944D0B6C2FC7010E945B1CDD2032
:1039C00031F08091BB0385FF02C086FF38C0809133
:1039D000BE039091BF030E94750D8091C603909124
:1039E000C7039C013056211540E2340720F0305EB9
:1039F0002115304108F499270E946D1A0E94A714DE
:103A00001AC08095909582239323BBCFCE01905608
:103A1000811520E2920720F0905E81159041A0F47C
:103A2000CE0199270E946D1A8091C6039091C70319
:103A30008C179D0719F31093C5030093C403CDB7EA
:103A4000DEB7E7E00C946A34CE01ECCFA9E1B0E038
:103A5000ECE2FDE10C944334242F498B952F5A8BD3
:103A60006B8B7C8B8D8B4C895D89692F822F0E949B
:103A70008D08811109C08091FF019091000201968B
:103A8000909300028093FF018B8981111092BE04F4
:103A90001E861F86188A85E0FE017196DE01199642
:103AA00001900D928A95E1F780918A0482FF1EC0F1
:103AB0008091A2039091A303892BC1F00E949112DF
:103AC00020915D0230915E02821B930B2091A20334
:103AD0003091A3038217930720F080915F0282FF49
:103AE000DFC10E94281481110E94420B4C855D8524
:103AF0006A8589850E948D08811111C061E0CE011F
:103B000009960E94530F6C018B8527EFC2162CE596
:103B1000D20681F4882321F181E080932F01298549
:103B20003A854B855C856D857E858F8598890E9459
:103B30005127C6C038EFC3163CE5D30629F48823C5
:103B400079F00E941428EBCF49EFC4164CE5D40657
:103B500039F4882329F080912F018111F2CFDCCF35
:103B60000CE214E0512CB12CA12C22242394312CF2
:103B70002EEF422EF8014081518188248A94982C9E
:103B800020E0822F90E0FC01EE0FFF1FE40FF51FF5
:103B9000608171816115710531F0C616D70609F48F
:103BA0004C012F5FEECFF12CFFEF8F169F0609F42B
:103BB00049C0F8014481F0902F018F2D411180E020
:103BC000F82FF170FF2EF801E58086819B859923FF
:103BD00009F4F8C0FF2009F4F5C06090B6037090B6
:103BE000B703E11013C0A101082C01C0440F0A94CF
:103BF000EAF7842B86838091C8039091C9038615C8
:103C0000970520F47092C9036092C803C10102C0F5
:103C1000880F991F2A95E2F70197F8012681281746
:103C2000190681F480917C0490917D04009709F439
:103C30004BC00E9482126816790608F045C021E048
:103C4000F80124835F28FFEFAF1ABF0A095F1F4FF7
:103C50002AE0A216B10409F08DCF8B85882309F4E0
:103C60000AC1552009F407C10E94911290937D0466
:103C700080937C048091CB03883010F591E0980FFD
:103C80009093CB0398E0FE013996DE0111960190E6
:103C90000D929A95E1F73CE0839FC0011124845373
:103CA0009C4F28E0FE013196DC0101900D922A958F
:103CB000E1F72FEF3FEFFC0131872087D386C286E3
:103CC0006996E2E10C945F3480917A0450917B0410
:103CD000982FF0E0E0E0851314C090937A04E01789
:103CE000F10709F4AFCF90E0FC01EE0FFF1FEE5893
:103CF000FB4FB182A08201968370992780937B0449
:103D0000A1CF682E712CF301EE0FFF1FEE58FB4F71
:103D10002081318147E0429FD001439FB00D1124A3
:103D2000A45DBB4F6D917C911197798F688F40E0B6
:103D300020E030E0E32FF0E0EE0FFF1F688D798D7B
:103D4000E60FF71F8080918081149104E1F0F80163
:103D50000190F081E02DFF8BEE8B20E005C08616F0
:103D6000970609F44F2D2F5FE22FF0E0EE0FFF1FB3
:103D70006E897F89E60FF71F60817181611571057A
:103D800071F73F5FD7CF4423D1F0F801231708F034
:103D9000FD0121E024830E171F0721F490937A047C
:103DA000F42E50CF891305C0AE17BF0711F49F5FE3
:103DB000937093012F5F3F4F822F83708CCFF0E081
:103DC000E0E0F7CF90E0E11020C0B10102C0660F43
:103DD000771F2A95E2F79B012150310928173907EF
:103DE00031F4442309F445C0C5010E949808C1017B
:103DF000082C01C0880F0A94EAF7982F9095F801D3
:103E0000868189238683FE2C1DCFAC01082C02C03D
:103E1000559547950A94E2F79C0121503109822378
:103E20009323892B11F540FF20C0F80182819381F3
:103E3000892BC1F01B821C821D821E8249824A820C
:103E40000E9491128160582F9D838C83F80182819A
:103E500093818F83988729813A814B816D817E81FF
:103E60000E945127F8011582C2CFF42FF170EF2E76
:103E7000BECFEF2CBCCF90917A0480917B04981731
:103E800031F00E942328552009F449CE19CF0E9411
:103E9000C62710927D0410927C040E94C408F3CFC0
:103EA00082E00E94F5141DCEA5E0B0E0EAE5FFE156
:103EB0000C9453349093760380937503811520E21C
:103EC000920730F40E946D1A2596E2E00C946F344C
:103ED00080EF89838A831B820E9491128160782FF0
:103EE0009D838C8349815A816B818D810E94261D1F
:103EF000EBCFA5E0B0E0EFE7FFE10C9453349093F3
:103F0000760380937503811520E2920730F40E94B6
:103F1000431C2596E2E00C946F3480EF89838A83FA
:103F200081E08B830E9491128160782F9D838C8326
:103F300049815A816B818D810E94261DEACFA4E0C0
:103F4000B0E0E5EAFFE10C9449347C01FC014381D7
:103F50005481618180810E948D088111DCC061E003
:103F6000C7010E94530F8C01F7018281882309F455
:103F70009EC5C80182519F45409708F083C48FEFCA
:103F800093E00E9492358111B7C04EEED42ED00E30
:103F90000FE212E0D1103EC08091310190913201C8
:103FA000A0913301B091340189839A83AB83BC83A0
:103FB00099249A9468012FEFC21AD20AC8010E946C
:103FC000923589831A82882309F496C0813009F0DA
:103FD00088C0580132E0A30EB11CC6010E94923580
:103FE000D82E8A83882309F487C0C5010E949235A0
:103FF000C82E8FEF8D0D8330D8F4580143E0A40E06
:10400000B11CCB82CC2021F0CE0101960E94A21BD4
:104010008501D0CF0115F4E01F0709F46DC0C80178
:104020000E949235811101C0DA940F5F1F4FB2CF09
:104030008BEF8D0D833070F5C8010396CB825C0148
:10404000CC2031F3580154E0A50EB11C0E949235EA
:104050008C838823E9F20B811C8101308FEF1807D4
:1040600010F0102F002796E0D91681F0E7E0DE1659
:1040700049F0C8010E94791F8091BE039091BF034F
:104080000E94750DC8010E94541FC2CFC8010E9432
:10409000791FBECFF4E0DF12BBCF580124E0A20E9F
:1040A000B11CC80103960E949235282FCC2021F123
:1040B000882311F12150330B929EA001939E500D45
:1040C0001124EC2DE150FF0BCF01840F951F0197B8
:1040D00008F49ECFEFE9FFE03197F1F700C0000050
:1040E000F6CFCE0101960E94A21B560191CF81E02E
:1040F0000E9426150E94DC1480915F02877059F09F
:10410000F7018281882339F080918A0482FF03C0FD
:1041100082E00E94F5142496ECE00C94653481E072
:104120000E94E814E7CF82E0E3CFC801C2C38091C8
:104130002E01816080932E010EC480912E018E7F0E
:1041400080932E010E94A71406C480912E018F7EB9
:10415000013E110531F0053E1105D9F480912E0183
:104160008F7D80932E0180912E0180FF03C4F70183
:1041700082810832110540F50E31110508F077C033
:104180009801245031092A31310580F18111EEC3A3
:10419000F1C3C80190568115E0E29E0720F0905EC1
:1041A0008115904100F780912E0182FFE3C3809139
:1041B000BD0381FDDFC32EEB32E040E0B50190E0AE
:1041C00080E00E94701CD6C30933110558F40D32EB
:1041D000110518F40B321105C9F69091BB0392FD3D
:1041E000D5CF08C004361105C1F3D0CF9091BB03E1
:1041F00094FDCCCF882309F49DC090917F038091DA
:104200008202D82ED92A2D2D2D7FB1F11092C7030D
:104210001092C6032091BB0321FD2EC0F80123E0BC
:10422000F695E7952A95E1F7EE71FF27E058FC4FE8
:1042300098012F70332781E090E002C0880F991F0A
:104240002A95E2F7809590952081318182239323EE
:104250009183808360E0C8010E945B1C8091820290
:104260008D7F0E94141482E00E94F51445CF909136
:10427000BB0393FD8BCFBECF28E0F701AEEBB2E0DE
:1042800001900D922A95E1F71092C0021092C2029D
:104290001092C1028090C6039090C70308151905BB
:1042A00091F52091BB0325FF2EC030912E0131FBEB
:1042B000CC24C0F831FF02C026FF25C02091C403E2
:1042C0003091C503A501421B530B443B5105D8F463
:1042D00091FF08C080912E01806180932E0182E0C1
:1042E0000E944D0B80917F0385FF08C080912E01B5
:1042F000806280932E0180E20E944D0B6C2DC401E0
:104300000E945B1CF9CE8D7F0E9414141093C7038A
:104310000093C603B092C503A092C4038D2D827092
:104320008460D0902E015D2D597FD52ED82AD09251
:104330002E0199CF970140E0B501C8010E94701C81
:10434000DBCE053F3CE51307E1F0063F4CE51407E3
:10435000E1F027E245EE64EE043F5CE5150709F065
:1043600021C3C7010E94461BC7CE26E241EE61EE83
:10437000F8CF27E245EE65EEF4CF26E241EE60EE9F
:10438000F0CF26E241EE62EEECCF27E245EE66EE9C
:10439000E8CF0C358DE51807B9F0073A9DE5190708
:1043A00009F01DC30E94051A0E944E15EFEFF4E3B9
:1043B0002CE0E150F0402040E1F700C000000E94F6
:1043C00007080E940B19EECF80918A0482FB882790
:1043D00080F991E089270E94111501C380E0FBCF8D
:1043E0008281C080D180882369F0C6010E94D90EE5
:1043F000182F682FC6010E94B90BB601812F0E94A9
:10440000BC0EF3C2C6010E94850B182FF6CF44E004
:10441000941609F4F8C0292D2850330B24303105A7
:1044200010F40E94DD0D812F9D2D0E94EF0B811154
:104430000AC2109200021092FF01AA20A9F08091F6
:104440005F0280FD11C0F7011282859585958595E3
:104450000E942615C7010E949F1F80915F028595CB
:10446000859585950E94E81460E0C7010E94530F6E
:1044700052CE59E0951609F451C186E0890D8F702E
:10448000823048F6123F09F059C18D2D8F71B1105D
:1044900052C10E942615BFCF882311F00295007FDC
:1044A000BB20B9F0002369F080E2810F883010F062
:1044B000111109C080917F03082B00937F030E9494
:1044C0004314812F2FC08091BE04082B0093BE049B
:1044D000F6CF812F0E94411A002309F49CCF80E27D
:1044E000810F883010F0111104C0802F0E944D0BF5
:1044F00006C000958091BE0408230093BE040E946C
:10450000431489CF80918A0482FD16C0BB2069F0D4
:10451000002339F080917F03082B00937F030E94D2
:10452000431480E00E94851A76CF80E00E94411AF1
:10453000002309F470CFD9CFBB2011F1C11004C002
:1045400080918202802B19C081E0C81206C0809140
:104550008202802B0E9414145ECF8091BC038230B3
:1045600078F3C812EDCF0E94420B9091FE01802F8C
:10457000892B89138093FE01802F0E94371A4BCF1D
:10458000C11003C00E94420B17C08091BC0391E090
:10459000C91216C0823008F43ECF80917F03802379
:1045A00009F439CF0E94420B9091FE01802F809533
:1045B000892389138093FE01802F0E94301A2BCF0C
:1045C000823000F3C812DECF26CF8091C203BB2019
:1045D00021F08C1508F41FCFCFCFC81608F01BCFE1
:1045E000EBCFCC2049F38091C0039091C1031933E4
:1045F00021F08091BE039091BF030E94750D812F21
:104600000E94411A08CF8D2D86958695837069F09A
:10461000813009F000CF812F9D2D9370B11002C021
:1046200090E080E00E946108F6CE812F9D2D93706E
:10463000B11002C090E080E00E947708ECCE8D2D92
:10464000837099F5B110E7CE412F4295469547709A
:10465000440F440F812F8F70042E01C0880F0A94DD
:10466000EAF7212F207114FF07C02FE030E001C0CE
:10467000220F4A95EAF720953D2D369536953370F1
:10468000323071F0333051F040918302313029F0F3
:10469000822B84230E944915BECE842B822BFACF15
:1046A000282B809183028227F5CF8695BB2011F0BD
:1046B0008D2D8170882309F4AECE412F4295469509
:1046C0004770440F440F812F8F70042E01C0880F54
:1046D0000A94EAF7212F207114FF07C02FE030E081
:1046E00001C0220F4A95EAF720953D2D3695369563
:1046F0003370323071F0333051F04091BD043130BD
:1047000029F0822B84230E94D71485CE842B822B00
:10471000FACF282B8091BD048227F5CF0D2D0F7085
:10472000BB2029F0802F0E942615812F26CF812FB4
:104730000E94301A802F0E94E8146DCE133F60F45F
:10474000103FB9F0113F81F0BB2009F477C0C110D0
:10475000B8CE8D2D8F719DCE133F11F1143FA1F76F
:1047600080918A0482FD28C08D2D8F71BB2019F3A2
:1047700090CE8091C203BB2079F0C81608F04BCED2
:104780002D2D2F7181E090E001C0880F2A95EAF766
:104790009091BD048927B7CF8C1508F43CCEF0CF9B
:1047A00080E0BB2009F4AFCF81E09D2D9F7101C057
:1047B000880F9A95EAF7A7CF8091BC03823038F131
:1047C000BB20C9F090915F029770943041F40E9431
:1047D000550B8D2D8F710E94E814A12C1CCEC8168C
:1047E000E0F70D2D0F71802F0E94261563E0802FBA
:1047F0000E943215F2CFC81630F00E94550B64E0CB
:104800008D2D8F71F5CF81E00E94F514E6CFBB208E
:1048100051F00D2D0F71802F0E94261563E0802F1F
:104820000E943215F8CD81E00E94F514F1E0FC15EC
:1048300008F0F1CD82E00E94F514EDCDC110D3CE89
:104840008D2D8F7178CFBB2019F0C110F2CDF5CD31
:10485000C110EFCD20E0F701408151816281738169
:1048600084810E94300F8091BD0383FFE2CD80914F
:10487000FF0190910002029709F0DBCD812F0E9489
:10488000221BD7CD0031FFE51F0709F430CC0131E1
:104890002FE5120709F447CCC8019056811520E294
:1048A000920728F0905E8115904108F03ECCC80137
:1048B000992720E28C33910520F4FC01E15BFE4F47
:1048C00020811F922F939F938F93F70180811F92D6
:1048D0008F9381811F928F9385E391E09F938F93B4
:1048E0001F9288E18F9386EC92E09F938F930E94B2
:1048F00052350FB6F894DEBF0FBECDBF8091BB031B
:1049000080FF38C00E9491125C01F70182818823E8
:1049100009F41BCC80912E0182FF08C02EEB32E0FF
:1049200040E0B50190E080E00E94701C0B31FCE596
:104930001F0709F4FCCB0C312CE5120709F4FDCB61
:1049400090912E01892F8E7F90FF81600A313CE586
:10495000130709F4F5CBC8019056811540E294077E
:1049600028F0905E8115904108F0FDCB1092C703AE
:104970001092C603033F8CE5180709F4FECC08F03B
:10498000E0CC083DECE51E0709F4F3CC28E241E059
:10499000093DFCE51F0709F4EECC073D2CE51207A5
:1049A00009F4E3CCF70182818823C9F01092C10495
:1049B0000B35FDE51F0709F411CD08F0EACC0E3DDB
:1049C0003CE5130709F4FDCC81E00A354DE51407F9
:1049D00009F401CD01155CE5150709F4E5CCF701F3
:1049E00086819781009709F4FBCC0E94B809182FA3
:1049F000D92EF701B280C580C2949FE0C922809170
:104A00005F028770C1F0AB2CBB20B1F08D2D807F91
:104A1000803421F080E2810F883068F080918A0430
:104A200082FF09C082E00E94F51480915F028770C6
:104A3000AA24A3948111A12C9D2C92948FE09822FA
:104A4000F8E09F1609F4FBCDF91508F412CD23E028
:104A5000291508F4DCCC8D2D807F0D2D0F7031E0F1
:104A6000391508F019CD803211F00295007F11231D
:104A700009F448CD113009F4A8CDBB2009F4B1CD1B
:104A8000CC2009F479CD20E0F70140815181628189
:104A9000738184810E94300F8091BD0381FD11CD0F
:104AA000F701858180FF0DCD8F70858365CD003145
:104AB0003FE5130709F433CB01314FE5140709F043
:104AC0001DCF82E02DCBEF92FF920F931F93CF93D8
:104AD000DF9380911802807F09F04CC0809115020D
:104AE000882309F447C0C0915C02E0901B02D0917A
:104AF0001302F09014020091160210911702EC16A6
:104B0000C9F1A8016F2D8D2F0E948D082C2F30E048
:104B1000811135C0F90183E0EE0FFF1F8A95E1F79F
:104B2000DF01A45EBD4F11968C9111978F1127C0A4
:104B30008C918D1324C012968C91129781111FC0F5
:104B400013968D919C91801B910B843B9105B8F439
:104B5000809118028F70806180931802EF5DFD4F85
:104B600080818F708061808383E192E00E949F1F2B
:104B70000E947B0BCDB7DEB7E6E00C946B342F5F61
:104B80003F4FC22FC770BBCFADE0B0E0EAECF5E21B
:104B90000C9445348C0185E0F801DE0119960190F2
:104BA0000D928A95E1F7D8016C9011967C9011973F
:104BB0001296EC9012971396CD90DC9060E083E112
:104BC00092E00E94530F83E1A82E82E0B82E50900D
:104BD0001302409014028090160290901702A401D4
:104BE000642D852D0E948D08811140C1F090150221
:104BF000960128193909FF2009F4FDC08091180297
:104C0000982F907F243B310508F0D5C0F801218111
:104C1000911184C0FE2C42121FC0908195111CC0BE
:104C20004091190250911A02268137814217530789
:104C300099F4E11011C08F70806180931802C50152
:104C40000E949F1F80911802D80115968C938F2D7A
:104C50002D96E0E10C946134A601672D862D0E940B
:104C60008D08D82E21E02E25811120E020FF18C0CC
:104C70004E2D672D862D0E945C0B882389F0809134
:104C8000BD0380FF0DC083E192E00E949F1F88E07A
:104C9000E3E1F2E0DF011D928A95E9F7F12CD7CF2D
:104CA00081E08E25D11080E0B82FB170DB2E80FF1F
:104CB0002CC04E2D672D862D0E945C0BC82E8111B5
:104CC00024C069867A8689859A850E94040F292FD7
:104CD00022952F70903248F0225F2F70223068F0BA
:104CE000C8010E949F1FCD2C0EC09F7011F0882319
:104CF00051F0805E883038F0F3CF9F70D1F3F80127
:104D00009581907FB1F7FC2CA2CFEE2009F49FCFC4
:104D100080911802816080931802C0CF42121BC09C
:104D20009081951118C04091190250911A02268164
:104D300037814217530779F4E1100DC08583C8010C
:104D40000E949F1F88E0F801A3E1B2E001900D925C
:104D50008A95E1F77CCFC8010E94130F882339F1AF
:104D6000EE2029F1809118028032A0F020911302E8
:104D7000309114023A8329831B82DD82CC828E8398
:104D80008091190290911A0298878F83CE01019623
:104D90000E949F1F88E0F801A3E1B2E001900D920C
:104DA0008A95E1F70E946325FF24F39450CFC80150
:104DB0000E949F1FF9CF992309F465CFF8019181D3
:104DC0009411C9CF90819511C6CF4091190250918D
:104DD0001A02268137814217530709F0BCCFE11030
:104DE000BACF8583C8010E949F1F88E0D5011D921C
:104DF0008A95E9F72CCF243B3105B8F7FE2CEE203D
:104E0000B1F2F8018181841123C08081851120C015
:104E10002091190230911A0286819781281739074B
:104E2000B9F48091BD0382FD8DCF8091180280FD81
:104E300089CF982F907F09F485CF8583903F09F41F
:104E40007ECF982F907F905F8F70892B858377CF4F
:104E5000C8010E94130F81119DCF809118028160BB
:104E600080931802C8010E949F1FF1CEEE2009F422
:104E70009ECFC8010E94130FF82E882309F497CF04
:104E800088E0F801A3E1B2E001900D928A95E1F784
:104E900080911302909114020E94040F0E946325D6
:104EA000D6CEA0E1B0E0E7E5F7E20C944F342987D5
:104EB0003A874B875C876D877E878F87988BCE017B
:104EC00009960E94C425811136C088E0FE013996FA
:104ED000DE01119601900D928A95E1F7E984FA843A
:104EE0000C851D85A8016F2D8E2D0E948D088111C6
:104EF00022C0A0911B02B0E0CD01019687709927D6
:104F000020915C022817190601F1E982FA821D83BB
:104F10000C8393E0AA0FBB1F9A95E1F7A45EBD4FE7
:104F200098E0FE01319601900D929A95E1F78093F9
:104F30001B020E947B0B80915C0290911B028913E3
:104F400012C06096E6E00C946B340E944E151092ED
:104F50001B0210925C0288E0E3E1F2E0DF011D92A7
:104F60008A95E9F7E8CFB8E08B9FC0011124845EF1
:104F70009D4F0E94C425882321F380915C0290E01C
:104F800001968770992780935C02D5CFEF92FF92AC
:104F90000F931F93CF93DF938091CB03882361F00E
:104FA000C091CA038CE0F82E8091CB03C81748F05B
:104FB0001092CB031092CA03CDB7DEB7E6E00C9493
:104FC0006B34EE24E394EC0EE092CA030C2F10E055
:104FD000CF9DE0011124C453DC4F4B815C8169817A
:104FE00088810E948D0881111DC08E819F81892B2F
:104FF00021F488859985019651F4288139814A8167
:105000005B816C817D818E819F810E945127F09E02
:10501000F001F19EF00D1124E453FC4F1482138231
:105020001092BE04CE2DC0CF10927D0410927C044D
:1050300010922F0180917B0480937A040E94C4080F
:105040000E94C6270895B0E0A0E0E9E2F8E20C94DF
:105050004434C0917A0497E0892E01E010E02CE0FE
:10506000322E3EEF932E4424439480917B048C1384
:1050700009C00E94C6270E94C408CDB7DEB7E1E18F
:105080000C946034D0E0FE01EE0FFF1FEE58FB4F92
:1050900080819181889ED001899EB00D1124A45DEC
:1050A000BB4F14962C911497211158C05090CB03EC
:1050B000ECECF3E030E020E0712C5D01251508F008
:1050C0004BC0E284F384D501CD90DC906FEF7FEF8D
:1050D000612C462D50E0DA01AA0FBB1FAC0DBD1D9F
:1050E0000D90BC91A02D109731F0EA16FB0609F443
:1050F000BA016394EECF6F3F7607A9F1D80102C0E1
:10510000AA0FBB1F6A95E2F77A2AB801062C02C0E3
:10511000660F771F0A94E2F7AB01415051097416EC
:105120001506F9F4329EF001339EF00D1124E4537C
:10513000FC4F889ED001899EB00D1124A45DBB4F09
:1051400012962D913C9113973783268390829182FA
:105150009187808715964C920E9498082196C3707B
:1051600084CF148213822F5F3F4F3C96A7CF1F92AC
:105170001FB61F9211248F939F93AF93BF9380917B
:105180008404811113C08091850490918604A091BC
:105190008704B09188044196A11DB11D80938504B8
:1051A00090938604A0938704B0938804BF91AF9135
:1051B0009F918F911F901FBE1F901895CDB7DEB79E
:1051C000AF970FB6F894DEBF0FBECDBF85B780682E
:1051D00085BF85B7806885BF84B7877F84BF0FB6DA
:1051E000F894A89580916000886180936000109287
:1051F00060000FBE80E890E00FB6F89480936100E5
:10520000909361000FBE8AE599E09093DD01809351
:10521000DC010E9425100E94670E0E945C060E941D
:105220004D078091E20084608093E2007894809141
:10523000BC048823A1F01091E9001F709091EC004C
:10524000892F817090FD80E8182B1092E9008091E1
:10525000E80083FD0E9464151F701093E90082E04E
:1052600084BD93E095BD9AEF97BD80936E00109238
:10527000A5021092A6021092A7021092A8020E9404
:10528000610F811102C00E94FB180E94BA0D809329
:1052900018010E94BA0D81110E94B5318091180148
:1052A0008091180194E0811190E09093B20284E023
:1052B000891B8093B10284E90E945C0986E60E9402
:1052C0005C0987E90E945C0986EC0E945C090FEB8F
:1052D00011E0D8018D918D018F3F11F00E945C0982
:1052E000B1E0053C1B07A9F788E0E7E0F3E0DF0148
:1052F000282F1D922A95E9F7E9EAF2E0DF011D92D5
:105300008A95E9F790E080E00E949A35883E9E4FAA
:1053100021F40E94610F811102C00E940B1982E0EA
:1053200090E00E9492358093B50284E090E00E9464
:105330009235182F82E290E00E949235982F812FAB
:1053400090938A04809389040E949D12EFE3FCE904
:105350003197F1F700C000000E949D120E94BA0D23
:10536000E4E08111E0E0F0E0E95FFC4F808181FF43
:1053700008C06FEF7FEF90E080E00E94BE350E9492
:10538000070883E090E00E9492350E9449150E9430
:10539000BA0D8111C0C082E08093FE0280E8809344
:1053A000C2040E945F306DE070E08EE891E00E94E0
:1053B000EE0D892B09F043C08091FE0263E070E09E
:1053C00081FDABC08BE891E00E94EE0D892BB9F511
:1053D0006DE070E08BE791E00E94EE0D892B79F58E
:1053E0000E9418086BA77CA78DA79EA7DC01CB01A4
:1053F000805A9541AF4FBF4F8093790390937A03C2
:10540000A0937B03B0937C03E5ECF4E080E092E0B2
:10541000DF019C011D9221503040E1F7F093CC0652
:10542000E093CB068FEF9FEF9093C4048093C30467
:1054300081E080937E0380937D031092FF020E949F
:10544000BA0D811102C00E94B83189E191E09093B8
:1054500081048093800408E1202E312C87E093E0C2
:1054600038E0380F3FA78091BC0410E4F12E00E132
:1054700012E1853009F489C00E949D12A6EBEA2E44
:10548000A2E0FA2EB7E0CB2EB3E0DB2E2EEB32E01B
:10549000D601F70191918D912E173F0709F47FC036
:1054A0009817C1F30E94BA0D882E10E0D6010D9115
:1054B0006D01F70191907F01901629F19026B12C92
:1054C000AA24A394892D8A21B1F08820A1F0B98261
:1054D0001A8391E0802F8A2109F490E09B830E9437
:1054E00091128160782F9D838C8349815A816B81D1
:1054F0008D810E94261DB394AA0CF6E0BF12E2CF64
:10550000F701319700831F5F183081F60E94180859
:10551000DD24D39465C080E03FCF88E891E054CF8C
:105520008091BC04843019F10E94180E10928404FA
:105530000FB6F894A895209260000FBEF09260001C
:1055400083B7817F846083BF83B7816083BF789492
:10555000889583B78E7F83BF0FB6F894A895809106
:105560006000886180936000109260000FBE80919F
:10557000B204882351F00E949D12E7E0F3E081918C
:10558000811151C54FA54E13FACF8091BC048530CF
:1055900009F4C6CF0E944E150E94DD0D6DCF981301
:1055A00081CF0E9491128C018091B3029091B4023C
:1055B00008171907A1F08FEF89838A831B820E9445
:1055C00091128160782F9D838C8349815A816B81F0
:1055D0008D810E94261D1093B4020093B302D12C3A
:1055E0000E94BA0D882309F446C080912F018823B8
:1055F00001F180917C0490917D040097D1F00E948C
:1056000082122091C8033091C9032817390788F402
:1056100090917A0480917B04981709F4ACC00E94A1
:1056200023281092C9031092C80310927D0410928F
:105630007C048091BB0380FF1EC080912E0182FFFD
:105640001AC00E949112BC018091C4039091C503BD
:105650009B01281B390B80912C0190912D0128175B
:10566000390748F02EEB32E041E08091C60390917B
:10567000C7030E94701C80917E038823A1F1809152
:105680000003909101030E948212C29708F07CC02F
:105690002091C3043091C4042115310509F0C2C022
:1056A00080917D038823F9F00E9418086BA77CA7DE
:1056B0008DA79EA78091790390917A03A0917B0397
:1056C000B0917C032BA53CA54DA55EA5281B390BED
:1056D0004A0B5B0BDA01C9018F3F9F4FAF4FBF47AA
:1056E00010F40E94180ED1100E94330E0E94DD0D9E
:1056F00090910203891721F0809302030E941808F9
:105700008091BC04843009F0AECE83E08093E90040
:105710008091E80082FFA7CE8091E80090E085FFAD
:1057200006C00E947B06882309F44AC191E080915B
:10573000E8008B778093E800992309F494CE0091D8
:10574000770310917803E9810115110509F455C11A
:10575000EE3F09F077C18A81833020F08550833095
:1057600008F070C1EA81EE3008F06CC1F0E0E85159
:10577000FA4C0C9486340E94C62710927D04109235
:105780007C040E94C40855CF0E949112909301039B
:105790008093000385EC94E09093CC068093CB0635
:1057A0000E94BA0D8823C9F186EB91E00E94BE0CDD
:1057B000E091BD04EF3060F4F0E0EA50FA4C0C9454
:1057C00086348EEA91E00E94BE0C81E00E94CC0CEF
:1057D00006EC12E0D8010D900020E9F78D01015090
:1057E0001109F6ECEF2EF2E0FF2EE016F10678F04C
:1057F00080917E03882309F453CF4ACF88EA91E051
:10580000E2CF82EA91E0DFCF8BE991E0DCCFF701D4
:1058100081917F010E943E0CE8CF8EEB91E00E94C7
:10582000BE0CE6CF8091FF0261E070E0811138CFBD
:10583000082F10E07B01082E02C0EE0CFF1C0A941A
:10584000E2F7A9014E215F21452B09F447C0909151
:10585000FE0290FD45C08295880F807680932701D7
:105860009801369527953695279520932A01815ED4
:105870008093280110922B0124E630E047E050E0AD
:1058800065E271E088E70E940531892B09F008CFB5
:10589000A80175E0440F551F7A95E1F78091FE024B
:1058A00080FD2CC04B535B4F04E610E020E230E05B
:1058B00060E488E70E942C31892B09F0F1CE0E9428
:1058C000330EE094F0948091C3049091C404E822D4
:1058D000F922F092C404E092C304E2CE8F5FA8CF15
:1058E000880F880F880F8093270110922A01895F03
:1058F0008093280183E080932B01BECFEEEDF2E090
:1059000080E2DF011D928A95E9F7E9ECF1E0FCA75E
:10591000EBA705EC11E067E0462E55245394ABA5A8
:10592000BCA58D91BCA7ABA7F80121918F01240FD5
:10593000352F311D2B533B4FE82FF0E0E252FD4F46
:1059400090E080E0742C781A852C082E01C0880C19
:105950000A94EAF75901912CD501CD905D01C82038
:10596000672D69196770662E062E000C770BBC2D0B
:1059700001C0BB0F6A94EAF7719561957109677070
:10598000772701C0C6946A95EAF7CB2A6081662E14
:105990006C286082939468E09612DECF019631966F
:1059A0008830910579F68BA59CA58D5C914009F016
:1059B000B6CF04E610E020E230E04EED52E078CFC2
:1059C00000E210E0AE014F5F5F4F7A018091E80086
:1059D00085FD0AC08091E8008B778093E8000E94E3
:1059E0007B06882399F3A2CE8091F100D7018D9395
:1059F0007D010150110951F799CEE43150F4EE23A5
:105A000059F0E150E33140F4F0E0EB5FF94C0C94D5
:105A10008634EE3F09F4A6CE8FEF2AC31A8289E0BE
:105A20008B8310C08A81823009F441C3833079F0BE
:105A3000813091F70E9418080E948C346B837C831C
:105A40008D839E83CE0101960E94D6060CCD809157
:105A5000730390917403892BA9F3809107038B83BF
:105A6000809108038C83809109038D8380910A03C0
:105A70008E8380910B038F8380910C0388878091A4
:105A80000D03898780910E038A87DCCF8A8182305B
:105A900019F62B813C814D815E812BA73CA74DA738
:105AA0005EA7CA01B9010E948C3486E290E00E9490
:105AB000A035C8CF4C816B818A810E948D0E9827BA
:105AC000892798279E838D83BDCF2D813E813227E4
:105AD000232732274C816B818A810E94D70FB2CF56
